:020000040800F2
:100000004804002001010008090100080B01000854
:100010000D0100080F010008110100080000000098
:1000200000000000000000000000000013010008B4
:100030001501000800000000170100081901000860
:100040001B0100081B0100081B0100081B01000820
:100050001B0100081B0100081B0100081B01000810
:100060001B0100081B0100081B0100081B01000800
:100070001B0100081B0100081B0100081B010008F0
:100080001B0100081B0100081B0100081B010008E0
:100090001B0100081B0100081B0100081B010008D0
:1000A0001B0100081B0100081B0100081B010008C0
:1000B000710600081B0100081B0100081B01000855
:1000C0001B0100081B0100081B0100081B010008A0
:1000D0001B0100081B0100081B0100081B01000890
:1000E0001B0100081B0100081B010008DFF80CD0F1
:1000F00000F00EF9004800471D08000848040020E1
:100100000648804706480047FEE7FEE7FEE7FEE7B1
:10011000FEE7FEE7FEE7FEE7FEE7FEE7090600086A
:10012000ED000008F0B480EA0102D40F4200B2EB07
:10013000410F02D20246084611464A0042D0C30D82
:10014000DDB2C1F3C752AD1A202D35DAC1F3160165
:1001500041F4000204B15242C5F1200602FA06F150
:100160002A411044B3EBD05F23D0C4B1012DA0EBE2
:10017000C35009DCF0BC4FF0004202EAC352DBB2CC
:1001800000F5000000F096B8400000F1807000EB30
:10019000C350A0F1807040EAD170490009E04908DD
:1001A00041EAC071A0EBC35000F50000400800EB2D
:1001B000C350F0BC00F075B86142012202EB41016E
:1001C000001BF6E7F0BC704781F00041AAE780F021
:1001D0000040A7E780EA010210B502F000434000AA
:1001E00022D04A001FD0010E01EB1261C0F356006D
:1001F000C2F3560240F4000042F40002A0FB0220C9
:1002000000047F39140400D0401C50EA124001D48D
:100210004000491EC2B20C0604EBD010401C40083E
:10022000802A02D003E0002010BD20F00100002948
:1002300000DA0020184310BD002801DBC0F10040A7
:10024000002901DBC1F10041814201D80120704742
:1002500000207047002801DBC0F10040002901DBCD
:10026000C1F10041814201D3012070470020704755
:1002700000F0004220F00040C10DC0F3160040F431
:1002800000007F2901DA00207047962903DCC1F1C4
:100290009601C84001E096398840002AF4D04042D7
:1002A00070470029A8BF7047401C490008BF20F0D4
:1002B0000100704710B4B0FA80FC00FA0CF050EA6C
:1002C000010404BF10BC704749B1CCF1200421FAED
:1002D00004F411FA0CF118BF012121430843A3EBE8
:1002E0000C01CB1D4FEA00614FEA102042BF0020F5
:1002F00010BC704700EBC35010440029A4BF10BCD1
:100300007047401C490008BF20F0010010BC704736
:100310001CB509480090094801900546009C06E07C
:10032000E06840F0010394E8070098471034AC42BD
:10033000F6D3FFF7DFFE0000A0080008C0080008A1
:1003400080B584B002900191009202980199FFF764
:1003500081FF18B9FFE7019803900BE0029800991C
:10036000FFF76AFF18B9FFE70098039002E00298D0
:100370000390FFE7039804B080BD000084B0DDF86F
:1003800010C00390029101920093029803990860B3
:1003900001980399C86000980399086103990020A7
:1003A000486103990020C4F2483088610498039999
:1003B000C861039948F20000C4F2BB404860039949
:1003C00088600398016840F2DC50088004B07047F0
:1003D00080B590B00F900E910D920C930D980E99E0
:1003E000FFF7F2FE0B900F98C0680B99FFF7F2FE33
:1003F0000A900B980C990F9A049252690392FFF796
:10040000E9FE0399FFF78EFE049948610F99486948
:100410008A6982F00041FFF793FF0F9948610F99B5
:1004200008694969FFF7D6FE09900A980999FFF70C
:1004300079FE089008984CF21C71C4F23111FFF754
:10044000C9FE0790079848F20001C4F2BB41FFF7CC
:1004500069FE0021C4F27A410022C4F2FA42FFF799
:100460006FFF0F9988600F98C0690C99FFF7B2FE73
:1004700006900F9841688068FFF7A6FE05900598E2
:100480000699FFF7D9FE48B9FFE706990F98029041
:100490004068FFF747FE0299486015E00598069905
:1004A00081F00041FFF7D6FE48B9FFE706990F98A3
:1004B00001904068FFF788FE0199486003E00F99BA
:1004C00088684860FFE7FFE70F980168009140687F
:1004D000FFF7CEFE0099088010B080BD80B500F017
:1004E00001F880BD84B000200390029041F2000129
:1004F000C4F20201086840F480300860FFE741F26E
:100500000000C4F20200006800F40030029003987A
:1005100001300390FFE702990020019039B9FFE70D
:100520000398B0F5A06018BF01200190FFE7019883
:10053000C0070028E3D1FFE741F20000C4F2020047
:1005400000688003002803D5FFE70120029002E045
:1005500000200290FFE70298012851D1FFE742F204
:100560000001C4F20201086840F010000860086849
:1005700020F007000860086840F00200086041F2BF
:100580000401C4F20201009108680860086808606C
:10059000086840F480600860086820F47C100860F7
:1005A000086840F4E810086041F20001C4F202015A
:1005B000086840F080700860FFE741F20000C4F274
:1005C000020000688001002801D4FFE7F5E741F24E
:1005D0000401C4F20201086820F003000860086802
:1005E00040F002000860FFE741F20400C4F202009C
:1005F000006800F00C00082801D0FFE7F4E700E0F5
:10060000FFE704B07047000080B541F20002C4F279
:100610000202106840F00100106041F20401C4F2CF
:10062000020108680023CFF6FF0318400860106835
:100630004FF6FF73CFF6F66318401060106820F491
:1006400080201060086820F4FE00086041F2080174
:10065000C4F202014FF41F000860FFF73FFF4EF69F
:100660000851CEF200014FF00060086080BD00002C
:1006700080B586B01020C4F200000088C007C8B35F
:10068000FFE71021C4F20001088820F00100088073
:1006900040F22800C2F200000190406848F20001D8
:1006A000CCF2BB41FFF73EFD45F2EC11C3F6B85169
:1006B000FFF790FD059040F20000C2F200000068D4
:1006C0000599FFF72FFD0146019804910499002236
:1006D00002924DF20A73C3F6A3330393FFF778FE39
:1006E000029A039B049940F20800C2F20000FFF74F
:1006F0006FFEFFE706B080BD80B541F21C01C4F279
:100700000201086840F0010008602821C4F20001DD
:10071000472008802C21C4F2000141F28730088074
:100720000C21C4F20001088840F001000880142167
:10073000C4F20001088840F0010008801021C4F2D2
:100740000001088820F0010008801C2000F04EF80D
:100750004FF08041088840F00100088080BD000013
:1007600041F21801C4F20201086840F00800086074
:1007700041F21C01C4F20201086840F00400086064
:1007800040F60041C4F20101086820F07F40086093
:10079000086840F03B40086040F62801C4F20001C0
:1007A0004720088040F62C01C4F2000144F61F6087
:1007B000088040F61801C4F20001088840F0680083
:1007C0000880088840F4D040088040F62001C4F238
:1007D0000001088840F01100088040F60001C4F2D2
:1007E0000001088840F001000880704781B08DF852
:1007F00003009DF9030000280ED4FFE79DF90310C4
:1008000001F01F02012090404A094EF20011CEF281
:10081000000141F82200FFE701B0704780B586B0C3
:1008200000200590FFF79CFF694648F20000C4F2E3
:10083000BB400290086040F22800C2F2000040F67F
:100840003401C4F200014FF07E5203924CF6CD43C6
:10085000C3F64C530493FFF791FD0298039A049B4F
:100860006946086040F20800C2F2000040F6380114
:10087000C4F20001FFF782FDFFF73EFFFFE7FEE74E
:1008800002E008C8121F08C1002AFAD17047704759
:10089000002001E001C1121F002AFBD170470000B7
:1008A000C0080008000000200400000080080008C4
:1008B000C408000808000020400400009008000858
:0408C0000000F04103
:0400000508000101ED
:00000001FF
